{
  "contractName": "Election",
  "abi": [
    {
      "constant": true,
      "inputs": [],
      "name": "ConstituencyCount",
      "outputs": [
        {
          "name": "",
          "type": "uint256"
        }
      ],
      "payable": false,
      "stateMutability": "view",
      "type": "function"
    },
    {
      "constant": true,
      "inputs": [],
      "name": "PartyCount",
      "outputs": [
        {
          "name": "",
          "type": "uint256"
        }
      ],
      "payable": false,
      "stateMutability": "view",
      "type": "function"
    },
    {
      "constant": true,
      "inputs": [],
      "name": "State",
      "outputs": [
        {
          "name": "",
          "type": "uint8"
        }
      ],
      "payable": false,
      "stateMutability": "view",
      "type": "function"
    },
    {
      "inputs": [],
      "payable": false,
      "stateMutability": "nonpayable",
      "type": "constructor"
    },
    {
      "constant": false,
      "inputs": [],
      "name": "changeState",
      "outputs": [],
      "payable": false,
      "stateMutability": "nonpayable",
      "type": "function"
    },
    {
      "constant": false,
      "inputs": [
        {
          "name": "_name",
          "type": "string"
        },
        {
          "name": "_Cadd",
          "type": "address"
        }
      ],
      "name": "addConstituency",
      "outputs": [],
      "payable": false,
      "stateMutability": "nonpayable",
      "type": "function"
    },
    {
      "constant": false,
      "inputs": [
        {
          "name": "_id",
          "type": "uint256"
        },
        {
          "name": "_name",
          "type": "string"
        },
        {
          "name": "_party",
          "type": "string"
        }
      ],
      "name": "addCandidate",
      "outputs": [],
      "payable": false,
      "stateMutability": "nonpayable",
      "type": "function"
    },
    {
      "constant": false,
      "inputs": [
        {
          "name": "_Constid",
          "type": "uint256"
        },
        {
          "name": "_Candid",
          "type": "uint256"
        }
      ],
      "name": "vote",
      "outputs": [],
      "payable": false,
      "stateMutability": "nonpayable",
      "type": "function"
    }
  ],
  "bytecode": "0x608060405234801561001057600080fd5b5033600060016101000a81548173ffffffffffffffffffffffffffffffffffffffff021916908373ffffffffffffffffffffffffffffffffffffffff16021790555060008060006101000a81548160ff0219169083600281111561007057fe5b0217905550610c77806100846000396000f3fe608060405234801561001057600080fd5b506004361061007d5760003560e01c8063b384abef1161005b578063b384abef14610185578063c7f61cb9146101bd578063e6c62efc146101db578063f1b6dccd146103375761007d565b80634d56cc68146100825780638412e667146100a0578063ae303484146100aa575b600080fd5b61008a610363565b6040518082815260200191505060405180910390f35b6100a8610369565b005b610183600480360360408110156100c057600080fd5b81019080803590602001906401000000008111156100dd57600080fd5b8201836020820111156100ef57600080fd5b8035906020019184600183028401116401000000008311171561011157600080fd5b91908080601f016020809104026020016040519081016040528093929190818152602001838380828437600081840152601f19601f820116905080830192505050505050509192919290803573ffffffffffffffffffffffffffffffffffffffff16906020019092919050505061048a565b005b6101bb6004803603604081101561019b57600080fd5b810190808035906020019092919080359060200190929190505050610705565b005b6101c561090b565b6040518082815260200191505060405180910390f35b610335600480360360608110156101f157600080fd5b81019080803590602001909291908035906020019064010000000081111561021857600080fd5b82018360208201111561022a57600080fd5b8035906020019184600183028401116401000000008311171561024c57600080fd5b91908080601f016020809104026020016040519081016040528093929190818152602001838380828437600081840152601f19601f820116905080830192505050505050509192919290803590602001906401000000008111156102af57600080fd5b8201836020820111156102c157600080fd5b803590602001918460018302840111640100000000831117156102e357600080fd5b91908080601f016020809104026020016040519081016040528093929190818152602001838380828437600081840152601f19601f820116905080830192505050505050509192919290505050610911565b005b61033f610b15565b6040518082600281111561034f57fe5b60ff16815260200191505060405180910390f35b60015481565b600060019054906101000a900473ffffffffffffffffffffffffffffffffffffffff1673ffffffffffffffffffffffffffffffffffffffff163373ffffffffffffffffffffffffffffffffffffffff161461040f576040517f08c379a0000000000000000000000000000000000000000000000000000000008152600401808060200182810382526023815260200180610c036023913960400191505060405180910390fd5b6000600281111561041c57fe5b6000809054906101000a900460ff16600281111561043657fe5b14156104645760016000806101000a81548160ff0219169083600281111561045a57fe5b0217905550610488565b60026000806101000a81548160ff0219169083600281111561048257fe5b02179055505b565b600060019054906101000a900473ffffffffffffffffffffffffffffffffffffffff1673ffffffffffffffffffffffffffffffffffffffff163373ffffffffffffffffffffffffffffffffffffffff1614610530576040517f08c379a0000000000000000000000000000000000000000000000000000000008152600401808060200182810382526023815260200180610c036023913960400191505060405180910390fd5b6000600281111561053d57fe5b6000809054906101000a900460ff16600281111561055757fe5b146105ad576040517f08c379a0000000000000000000000000000000000000000000000000000000008152600401808060200182810382526036815260200180610bcd6036913960400191505060405180910390fd5b600160008154809291906001019190505550600154600560008373ffffffffffffffffffffffffffffffffffffffff1673ffffffffffffffffffffffffffffffffffffffff168152602001908152602001600020819055506040518060a0016040528060015481526020018381526020018273ffffffffffffffffffffffffffffffffffffffff168152602001600081526020016040518060200160405280600081525081525060046000600154815260200190815260200160002060008201518160000155602082015181600101908051906020019061068f929190610b27565b5060408201518160020160006101000a81548173ffffffffffffffffffffffffffffffffffffffff021916908373ffffffffffffffffffffffffffffffffffffffff1602179055506060820151816003015560808201518160040190805190602001906106fd929190610b27565b509050505050565b6001600281111561071257fe5b6000809054906101000a900460ff16600281111561072c57fe5b1461079f576040517f08c379a00000000000000000000000000000000000000000000000000000000081526004018080602001828103825260198152602001807f456c656374696f6e206973206e6f74204c69766520596574210000000000000081525060200191505060405180910390fd5b81600560003373ffffffffffffffffffffffffffffffffffffffff1673ffffffffffffffffffffffffffffffffffffffff1681526020019081526020016000205414610836576040517f08c379a0000000000000000000000000000000000000000000000000000000008152600401808060200182810382526026815260200180610c266026913960400191505060405180910390fd5b60008111801561085b5750600460008381526020019081526020016000206003015481105b6108cd576040517f08c379a00000000000000000000000000000000000000000000000000000000081526004018080602001828103825260118152602001807f496e76616c69642043616e64696461746500000000000000000000000000000081525060200191505060405180910390fd5b600460008381526020019081526020016000206005016000828152602001908152602001600020600301600081548092919060010191905055505050565b60025481565b600060019054906101000a900473ffffffffffffffffffffffffffffffffffffffff1673ffffffffffffffffffffffffffffffffffffffff163373ffffffffffffffffffffffffffffffffffffffff16146109b7576040517f08c379a0000000000000000000000000000000000000000000000000000000008152600401808060200182810382526023815260200180610c036023913960400191505060405180910390fd5b600060028111156109c457fe5b6000809054906101000a900460ff1660028111156109de57fe5b14610a34576040517f08c379a0000000000000000000000000000000000000000000000000000000008152600401808060200182810382526036815260200180610bcd6036913960400191505060405180910390fd5b600460008481526020019081526020016000206003016000815480929190600101919050555060006004600085815260200190815260200160002060030154905060405180608001604052808281526020018481526020018381526020016000815250600460008681526020019081526020016000206005016000838152602001908152602001600020600082015181600001556020820151816001019080519060200190610ae4929190610b27565b506040820151816002019080519060200190610b01929190610b27565b506060820151816003015590505050505050565b6000809054906101000a900460ff1681565b828054600181600116156101000203166002900490600052602060002090601f016020900481019282601f10610b6857805160ff1916838001178555610b96565b82800160010185558215610b96579182015b82811115610b95578251825591602001919060010190610b7a565b5b509050610ba39190610ba7565b5090565b610bc991905b80821115610bc5576000816000905550600101610bad565b5090565b9056fe54686973204f7065726174696f6e2063616e20626520706572666f726d656420696e2050726520456c656374696f6e205374616765204f6e6c792045432063616e20706572666f726d2074686973204f7065726174696f6e2043616e6e6f7420566f746520666f7220446966666572656e7420436f6e7374697475656e6379a165627a7a72305820ea8c339dc959c7f9a8dab3766cd77a8bdb647e0a4c97a1eba0d7d099fc518d830029",
  "source": "pragma solidity ^0.5.0;\r\n\r\ncontract Election {\r\n\r\n    //set of States\r\n    enum StateType { Pre, Live, Post }\r\n\r\n    StateType public State;\r\n    address private EC;\r\n    //uint public CandidateCount;\r\n    uint public ConstituencyCount;\r\n    uint public PartyCount;\r\n    //mapping(uint => Candidate) public candidates;\r\n    mapping(string => uint) private PartySeats;\r\n    mapping(uint => Constituency) private Constituencies;\r\n    mapping(address => uint) private Caddlist;\r\n\r\n    // Model a Candidate\r\n    struct Candidate {\r\n        uint id;\r\n        string name;\r\n        string party;\r\n        uint voteCount;\r\n    }\r\n\r\n    // Model a Constituency\r\n    struct Constituency{\r\n        uint id;\r\n        string name;\r\n        address Cadd;\r\n        uint candidatesCount;\r\n        string WinParty;\r\n        mapping(uint=>Candidate) candidates;\r\n    }\r\n\r\n    function changeState() public onlyEC(){\r\n        if(State == StateType.Pre)\r\n            State = StateType.Live;\r\n        else\r\n            State = StateType.Post;\r\n    }\r\n\r\n    function addConstituency(string memory _name, address _Cadd) public onlyEC() PreEl(){\r\n        ConstituencyCount++;\r\n        Caddlist[_Cadd] = ConstituencyCount;\r\n        Constituencies[ConstituencyCount] = Constituency(ConstituencyCount, _name, _Cadd, 0, \"\");\r\n    }\r\n\r\n    function addCandidate(uint _id,string memory _name, string memory _party) public onlyEC() PreEl(){\r\n        Constituencies[_id].candidatesCount++;\r\n        uint CC = Constituencies[_id].candidatesCount;\r\n        Constituencies[_id].candidates[CC] = Candidate(CC, _name, _party, 0);\r\n    }\r\n\r\n    function vote(uint _Constid, uint _Candid) public LiveEl(){\r\n        require(Caddlist[msg.sender] == _Constid,\"Cannot Vote for Different Constituency\");\r\n        require(_Candid > 0 && _Candid < Constituencies[_Constid].candidatesCount,\"Invalid Candidate\");\r\n\r\n        Constituencies[_Constid].candidates[_Candid].voteCount++;\r\n    }\r\n\r\n    //Result Function: Not required for now\r\n    /*\r\n    function results() PostEl() onlyEC(){\r\n        for(uint i=1; i<=ConstituencyCount; i++){\r\n            for(uint j=1; j<=Constituencies[i].candidatesCount; j++){\r\n                uint memory CC = Constituencies[i].candidatesCount;\r\n\r\n            }\r\n        }\r\n    }*/\r\n\r\n    //Modifier List\r\n    modifier onlyEC(){\r\n        require(msg.sender == EC,\"Only EC can perform this Operation \");\r\n        _;\r\n    }\r\n\r\n    modifier PreEl(){\r\n        require(State == StateType.Pre,\"This Operation can be performed in Pre Election Stage \");\r\n        _;\r\n    }\r\n\r\n    modifier LiveEl(){\r\n        require(State == StateType.Live,\"Election is not Live Yet!\");\r\n        _;\r\n    }\r\n\r\n    modifier PostEl(){\r\n        require(State == StateType.Post,\"Polls are not Over yet !\");\r\n        _;\r\n    }\r\n\r\n    constructor() public{\r\n        EC = msg.sender;\r\n        State = StateType.Pre;\r\n    }\r\n}\r\n",
  "sourcePath": "/mnt/g/onlinevotingmachine/contracts/Election.sol",
  "compiler": {
    "name": "solc",
    "version": "0.5.8+commit.23d335f2.Emscripten.clang"
  },
  "schemaVersion": "3.0.11",
  "updatedAt": "2019-08-05T14:08:27.108Z",
  "devdoc": {
    "methods": {}
  },
  "userdoc": {
    "methods": {}
  }
}